:100000000C94EB030C9413040C9413040C9413043D
:100010000C9413040C9413040C9413040C94130404
:100020000C9413040C9413040C948F090C94FE0983
:100030000C9413040C9413040C9413040C941304E4
:100040000C9413040C9413040C9413040C941304D4
:100050000C9413040C9413040C9413040C94300C9F
:100060000C9413040C9413040C9413040C941304B4
:100070000C9413040C9413040C9413040C941304A4
:100080000C947A0C0C9413040C9413040C94130425
:100090000C9413040C9413040C9413040C94130484
:1000A0000C9413040C9413040C941304000000002B
:1000B000003E5B4F5B3E3E6B4F6B3E1C3E7C3E1CEE
:1000C000183C7E3C181C577D571C1C5E7F5E1C0034
:1000D000183C1800FFE7C3E7FF0018241800FFE7EB
:1000E000DBE7FF30483A060E2629792926407F05AE
:1000F0000507407F05253F5A3CE73C5A7F3E1C1CC4
:1001000008081C1C3E7F14227F22145F5F005F5F83
:1001100006097F017F006689956A6060606060946F
:10012000A2FFA29408047E040810207E2010080874
:100130002A1C08081C2A08081E101010100C1E0C7F
:100140001E0C30383E3830060E3E0E060000000011
:100150000000005F00000007000700147F147F14F8
:10016000242A7F2A1223130864623649562050003D
:1001700008070300001C2241000041221C002A1C29
:100180007F1C2A08083E0808008070300008080814
:100190000808000060600020100804023E51494534
:1001A0003E00427F400072494949462141494D3352
:1001B0001814127F1027454545393C4A49493141B9
:1001C000211109073649494936464949291E000087
:1001D00014000000403400000008142241141414DC
:1001E0001414004122140802015909063E415D59C8
:1001F0004E7C1211127C7F494949363E41414122D1
:100200007F4141413E7F494949417F090909013EFA
:10021000414151737F0808087F00417F4100204021
:10022000413F017F081422417F404040407F021C33
:10023000027F7F0408107F3E4141413E7F0909094A
:10024000063E4151215E7F09192946264949493216
:1002500003017F01033F4040403F1F2040201F3FDC
:100260004038403F63140814630304780403615961
:10027000494D43007F4141410204081020004141A3
:10028000417F04020102044040404040000307084F
:100290000020545478407F2844443838444444284B
:1002A000384444287F385454541800087E090218F2
:1002B000A4A49C787F0804047800447D400020407A
:1002C000403D007F1028440000417F40007C0478BE
:1002D00004787C080404783844444438FC18242406
:1002E0001818242418FC7C08040408485454542486
:1002F00004043F44243C4040207C1C2040201C3C03
:100300004030403C44281028444C9090907C4464F9
:10031000544C44000836410000007700000041368C
:10032000080002010204023C2623263C1EA1A16112
:10033000123A4040207A3854545559215555794144
:100340002154547841215554784020545579400C1B
:100350001E527212395555555939545454593955FC
:100360005454580000457C410002457D420001453F
:100370007C40F0292429F0F0282528F07C545545AC
:10038000002054547C547C0A097F4932494949323F
:100390003248484832324A4848303A4141217A3A54
:1003A00042402078009DA0A07D39444444393D401E
:1003B00040403D3C24FF2424487E4943662B2FFCCB
:1003C0002F2BFF0929F620C0887E09032054547979
:1003D000410000447D413048484A32384040227A4A
:1003E000007A0A0A727D0D19317D2629292F2826C7
:1003F0002929292630484D402038080808080808CF
:100400000808382F10C8ACBA2F102834FA00007B27
:10041000000008142A142222142A1408950022002D
:1004200095AA005500AAAA55AA55AA000000FF00E7
:10043000101010FF00141414FF001010FF00FF1024
:1004400010F010F0141414FC001414F700FF000056
:10045000FF00FF1414F404FC141417101F10101FD5
:10046000101F1414141F00101010F0000000001FC3
:10047000101010101F10101010F010000000FF10CE
:100480001010101010101010FF10000000FF1400CA
:1004900000FF00FF00001F10170000FC04F41414FC
:1004A0001710171414F404F40000FF00F7141414C8
:1004B00014141414F700F7141414171410101F1048
:1004C0001F141414F4141010F010F000001F101F6B
:1004D0000000001F14000000FC140000F010F010D9
:1004E00010FF10FF141414FF141010101F00000050
:1004F00000F010FFFFFFFFFFF0F0F0F0F0FFFFFF54
:100500000000000000FFFF0F0F0F0F0F38444438AA
:10051000447C2A2A3E147E02020606027E027E02E5
:1005200063554941633844443C04407E201E200604
:10053000027E020299A5E7A5991C2A492A1C4C7241
:1005400001724C304A4D4D303048784830BC625AC8
:10055000463D3E494949007E0101017E2A2A2A2A58
:100560002A44445F444440514A444040444A514034
:100570000000FF0103E080FF000008086B6B0836F5
:1005800012362436060F090F060000181800000066
:100590001010003040FF0101001F01011E00191D55
:1005A0001712003C3C3C3C0000000000F0F89C8E20
:1005B0008783878E9CF8F00000FEFF03030303038C
:1005C000070EFCF80000FEFF0303030303070EFC05
:1005D000F80000FFFF00000000000000FFFF000027
:1005E000FEFF8383838383C7EE7C380000F8FC0E14
:1005F00007030303070EFCF800003F7FE0C0808084
:10060000C0E07F3FFFFF01010101010101FFFF0089
:1006100000FFFF0C0C0C0C1C3E77E3C100007FFFB9
:10062000C0C0C0C0C0E0703F1F00001F3F70E0C0EE
:10063000C0C0E0703F1F00007FFFC1C1C1C1C1E366
:10064000773E1C00001F3F70E0C0C0C0E0703F1F3D
:10065000000000000001FFFF01000000D5F08D1434
:10066000A1C881CFD9F1AF200024280000000000EC
:10067000F0F0F0F0FFFFFFFFFFFFFFFFFFFFFFFFC6
:10068000FFFFFFFFF0F0F0F00000000000000000AE
:10069000FFFFFFFFFFFFFFFFFFFFFFFFFFFFFFFF6A
:1006A0000000000000000000FFFFFFFFFFFFFFFF52
:1006B00000000000FFFFFFFFFFFFFFFFFFFFFFFF46
:1006C000FFFFFFFFFFFFFFFFFFFFFFFFFFFFFFFF3A
:1006D000FFFFFFFF00000000FFFFFFFFFFFFFFFF26
:1006E000FFFFFFFFFFFFFFFFFFFFFFFFFFFFFFFF1A
:1006F000FFFFFFFFFFFFFFFF000000000000000002
:100700000F0F0F0FFFFFFFFFFFFFFFFFFFFFFFFFB9
:10071000FFFFFFFF0F0F0F0F000000000000007031
:10072000037D00DC037D000080C4009600AF0096CE
:1007300000C4009600C4009600008004050E1F1D32
:100740000E0909387CFE7C7C7CFE7C3800000000B1
:1007500000000000000044FEFFFFFFFE4400000018
:1007600000010101000000080B0002020200000964
:10077000040000010202000005240010010524010C
:100780000101042402060524060001070581031067
:10079000004009040100020A0000000705020240AF
:1007A0000000070583024000000403090412010051
:1007B00002EF0201404123368000010102030141A2
:1007C000726475696E6F204C4C43004172647562AF
:1007D0006F790000F40C11241FBECFEFDAE0DEBF0A
:1007E000CDBF11E0A0E0B1E0EAE4F8E202C005907C
:1007F0000D92A438B107D9F726E0A4E8B1E001C012
:100800001D92AB33B207E1F713E0CBEED3E004C0A7
:100810002197FE010E941D14CA3ED107C9F70E940C
:10082000210D0C9423140C94000080919E010895D6
:1008300090E0E7EDF1E091119FEF8FEF91939193AD
:10084000919391938150D0F70895E7EDF1E0A0E006
:10085000B8E000800EBC8111012C1197A0FDFDCFE6
:100860000192B9F70DB40895FC018091D601882357
:1008700011F13FB7F89482E08093E9002091F200F3
:10088000822F90E01816190614F481E090E0882376
:1008900039F0289844E64093D5014091F100408317
:1008A000222339F02091F200211103C02BE620937E
:1008B000E8003FBF08958FEF9FEF08952FB7F8949A
:1008C00083E08093E9009091E800892F807295FF82
:1008D00004C09091F20080E4891B2FBF089580919D
:1008E000CD0181110DC082E08093C90184E0809325
:1008F000CA011092CC011092CB0181E08093CD010E
:1009000089EC91E00895CF93DF931F92CDB7DEB7C6
:100910006983DC01ED91FC910280F381E02D41E0DF
:1009200050E0BE016F5F7F4F09950F90DF91CF912F
:10093000089583E08093E9008091F200882319F004
:100940008AE38093E80008950E945E0490E0089591
:10095000CF93DF931F92CDB7DEB7FC0184859585D9
:1009600097FD08C02FEF3FEF358724870F90DF9169
:10097000CF910895CE0101960E943404019719F495
:10098000898190E0F3CF8FEF9FEFF0CF0F931F930C
:10099000CF93DF931F92CDB7DEB78C01FC01848526
:1009A000958597FF0BC0CE0101960E9434040197F4
:1009B00071F4898190E0F80195878487F801848536
:1009C00095850F90DF91CF911F910F9108958FEF33
:1009D0009FEFF1CFFC018485958597FD0BC09FB7F4
:1009E000F89482E08093E9008091F2009FBF90E04C
:1009F000019608959FB7F89482E08093E900809172
:100A0000F2009FBF90E008954091C3015091C4014E
:100A10002091C1013091C20142175307B4F4909163
:100A2000E8009570E1F39091E80092FD19C0809381
:100A3000F1008091C3019091C40101968F739927B1
:100A4000892B19F48EEF8093E8008091C301909177
:100A5000C40101969093C4018093C30181E008957D
:100A600080E00895DF92EF92FF920F931F93CF9350
:100A7000DF93D82E8A01EB017B01E40EF51ECE1523
:100A8000DF0559F0D7FE12C0FE0184910E940405D3
:100A900021968111F4CF0FEF1FEFC801DF91CF91A5
:100AA0001F910F91FF90EF90DF9008958881EECF16
:100AB0000F931F93CF93DF931F92CDB7DEB782E0E2
:100AC000898342E450E067E677E080E80E943205DF
:100AD0000E946F04DC0112960D911C910115110505
:100AE00089F0D801ED91FC910280F381E02DBE01E7
:100AF0006F5F7F4FC801099597FD04C0F80100851D
:100B00001185ECCF89810F90DF91CF911F910F91CB
:100B10000895615030F02091F100FC01208301968E
:100B2000F8CF289884E68093D5010895AF92BF92BC
:100B3000CF92DF92EF92FF920F931F93CF93DF93A9
:100B40006C017B018B01040F151FEB015E01AE18D8
:100B5000BF08C017D10759F06991D601ED91FC91FA
:100B60000190F081E02DC6010995892B79F7C50127
:100B7000DF91CF911F910F91FF90EF90DF90CF9079
:100B8000BF90AF900895FC010E945A06319728F05B
:100B900068517C4F8F4F9F4FF9CFAB01FC010E94F2
:100BA0005A06641775078E079F07C8F308958F923A
:100BB0009F92AF92BF92CF92DF92EF92FF920F93EC
:100BC0001F93CF93DF936C017B018A0180911E01FB
:100BD000882309F45AC08091D601882309F455C0AE
:100BE0008091C80180FF05C08091E0008260809301
:100BF000E000E801B12C8AEFA82E93E0892E2AE3C9
:100C0000922E209711F4BB20C9F10E945E0481113D
:100C100008C0AA94AA20C9F181E090E00E94C3050F
:100C2000F0CF8C171D0611F00CF08C2F9FB7F894A5
:100C30008092E9002091E80025FD02C09FBFE1CF2E
:100C4000282F30E0C21BD30BF701815020F04191D7
:100C50004093F100FACFE20EF31EBB2021F09092F8
:100C6000E800B12CEBCF8091E80085FDE7CF9092B2
:100C7000E800BB24B394209709F3F3CF5D9884E692
:100C80008093C701101611063CF081E090E0F60158
:100C90009383828310E000E0C801DF91CF911F9120
:100CA0000F91FF90EF90DF90CF90BF90AF909F900B
:100CB0008F900895AAE9B1E02FB7F8947D918D91B6
:100CC0009C9166B52FBFA89B05C06F3F18F47F5F4E
:100CD0008F4F9F4F22E0660F771F881F991F2A951D
:100CE000D1F708957F928F929F92AF92BF92CF9249
:100CF000DF92EF92FF920F931F93CF93DF93DC016C
:100D0000FA01D490319694914E5F5F4FCD2DD0E093
:100D10002223B9F0E1E0F0E0892F877011F4F0E0D0
:100D2000E0E0292F2695269526952E0F3F2F311D81
:100D30002C9FF0012D9FF00D3C9FF00D11244E0FC4
:100D40005F1F7E01EA0EFB1E1E141F040CF0A6C0DE
:100D5000A038B1050CF0A2C09B01290F311D12165D
:100D600013060CF09BC0603471050CF097C0411560
:100D7000510509F493C0062F07709B0177FF02C04D
:100D8000295F3F4F83E0359527958A95E1F7F22F4C
:100D900077FF04C0002311F0FFEFF20F2227332763
:100DA0002A1B3B0BB7FD02C030E020E010E81A1B05
:100DB000712E10E8E116F1040CF47D2C721A6F2FDD
:100DC0000F2E000C770BF62EF094FF3F0CF0F12C59
:100DD000E1E0892F877009F4E0E096959695969565
:100DE0009E0F690F711D6930710514F098E09F1B0B
:100DF0009F2C9F0E692D70E8670350011124AA0DE6
:100E0000BB1DA20FB31FDF9C200D311D1124420F0B
:100E1000531FC02E002E000CDD082FEF30E0002EF7
:100E200002C0220F331F0A94E2F720953095832EDB
:100E30009F0F991599F1FD01E952FE4F7F01B12CE9
:100E4000A12CA71428F5FA01EA0DFB1D649170E0AE
:100E50000C2C02C0660F771F0A94E2F797FC05C0BE
:100E6000F70180818223862B8083002351F0F6E0F6
:100E7000F9153CF0F701E058FF4F80818821872B5E
:100E800080831FEFA11AB10A6FEFE61AF60AD9CFD5
:100E900093944C0F5D1FA058BF4FCBCFDF91CF91E4
:100EA0001F910F91FF90EF90DF90CF90BF90AF9088
:100EB0009F908F907F90089590E00C94C3058FB120
:100EC0008095807F669B88601C9B8460089590E17C
:100ED000282F81E061FD84E060FD880F62FD82952E
:100EE000687F969FD0011124A20FA952BE4F0C908B
:100EF000082A40FF08260C920895AF92BF92CF9225
:100F0000DF92EF92FF920F931F93CF93DF936B01CA
:100F1000EC015C01A40EB11C7B01E20EF11CCA15B0
:100F2000DB05E4F48601D7FE02C010E000E0C70153
:100F300021E4E216F10414F080E490E008171907A8
:100F40005CF4C038D10528F441E0B801CE010E941C
:100F500067070F5F1F4FEBCF2196E1CFDF91CF9156
:100F60001F910F91FF90EF90DF90CF90BF90AF90C7
:100F700008958F929F92AF92BF92CF92DF92EF929D
:100F8000FF920F931F93CF93DF936D3089F0C09042
:100F9000BF01D090C0016A30D1F41092BE0110920E
:100FA000BD0188E0C80ED11CD092C001C092BF0123
:100FB00081E090E0DF91CF911F910F91FF90EF9032
:100FC000DF90CF90BF90AF909F908F900895009149
:100FD000BD011091BE01E5E06E9FE0011124C455F2
:100FE000DF4F5801F12CF5E0E12CFF1629F0CE017E
:100FF0000196FE01E490EC01912C812CF0E8AF16F3
:10100000B10458F4B601680D791D6034710528F4F7
:101010004E2D4170C5010E946707E6948FEF881A34
:10102000980AE8E08E16910449F7F394FFEFAF1A9F
:10103000BF0A86E0F812D7CF0A5F1F4F1093BE0198
:101040000093BD01B5CFCF93C82F0E945F07982FA3
:101050009C2381E09C1380E0CF91089580E00C9464
:10106000250420919101E0918F01F0919001CF0131
:1010700002969093900180938F01222319F085911D
:1010800094910895808191810895CF92DF92EF929B
:10109000FF92CF93DF930E943108811520E89207D9
:1010A00091F4809171008D7F809371001092910076
:1010B0004698479810928E01DF91CF91FF90EF9064
:1010C000DF90CF90089521E020938E01813020E8B9
:1010D000920751F480918C0190918D019093900131
:1010E00080938F010E94310897FD05C020918B01EC
:1010F000222309F454C020918A01211150C021E01B
:1011000020939201EC01DF77209709F04BC081E03A
:101110008093930146983FE9C32E3FE0D32EE12C04
:10112000F12CCAEFD0E0E0913506F0913606099532
:10113000811103C081E08093930180919201882303
:1011400029F080919301882309F43FC047980E94B9
:1011500031080097F1F19C01DE010E940E14DC01C0
:10116000CB0129E0B595A795979587952A95D1F755
:10117000109290002AE020939100D0929900C092A2
:1011800098008093940190939501A0939601B09359
:101190009701809171008260809371008DCF1092D1
:1011A0009201B0CF9E0150E040E060E472E48FE035
:1011B00090E00E94BA1369017A0181E0C81AD1084F
:1011C000E108F10810929301AECF4699BFCF479A3C
:1011D000BECF8FEF9FEFDC01CBCF9C01E1E7F0E0CA
:1011E00090819D7F908381E0809391013093900165
:1011F00020938F0130938D0120938C010C9445082E
:10120000089590E080E008958F929F92AF92BF92F0
:101210000F931F93CF93DF93CDB7DEB7A1970FB690
:10122000F894DEBF0FBECDBF19A2423008F44AE0E9
:101230008E010F5D1F4F842E912CB12CA12CA50186
:1012400094010E94EC13E62FB901CA01EA3044F57B
:10125000E05DD801EE938D01232B242B252B79F70C
:1012600090E080E0109769F0FD0101900020E9F71F
:101270003197AF014A1B5B0BBD0187E396E00E94EB
:101280009605A1960FB6F894DEBF0FBECDBFDF91D5
:10129000CF911F910F91BF90AF909F908F90089525
:1012A000E95CD7CFFC0101900020E9F73197AF014D
:1012B000481B590BBC0187E396E00C949605CF922E
:1012C000DF92EF92FF92CF93DF936C01990FEE08BC
:1012D000FF08F7FE19C06DE287E396E00E94B907A8
:1012E000EC0166277727CB016C197D098E099F09D0
:1012F0004AE00E9404098C0F9D1FDF91CF91FF905F
:10130000EF90DF90CF9008954AE0C701B601DF91DA
:10131000CF91FF90EF90DF90CF900C9404091F9233
:101320000F920FB60F9211248F939F938091E1003B
:101330009091E100937F9093E10083FF0FC01092A2
:10134000E90091E09093EB001092EC0092E390930F
:10135000ED001092D60198E09093F00082FF22C039
:1013600093E09093E9009091F200992319F09AE3A9
:101370009093E8009091C701992341F09091C701A3
:1013800091509093C701911101C05D9A9091D50140
:10139000992341F09091D50191509093D5019111ED
:1013A00001C0289A84FF18C08091E2008E7E81607F
:1013B0008093E2008091E1008F7E8093E100809134
:1013C000C8018E7E80618093C8019F918F910F909C
:1013D0000FBE0F901F90189580FFF7CF8091E2000D
:1013E0008E7E80618093E2008091E1008E7E80930A
:1013F000E1008091C8018E7E8160E5CF1F920F923F
:101400000FB60F921124CF92DF92EF92FF920F93BB
:101410001F932F933F934F935F936F937F938F937C
:101420009F93AF93BF93EF93FF93CF93DF93CDB78A
:10143000DEB76C97DEBFCDBF1092E9008091E80067
:1014400083FF25C068E0CE0145960E94890582EFA2
:101450008093E8008D8987FF39C09091E80090FF64
:10146000FCCF982F907609F034C19E894F89588D12
:101470002F89F88C911131C0803861F58091C601B7
:101480008093F1001092F1008EEF8093E8006C964B
:101490000FB6F894DEBF0FBECDBFDF91CF91FF91A5
:1014A000EF91BF91AF919F918F917F916F915F91DC
:1014B0004F913F912F911F910F91FF90EF90DF90EF
:1014C000CF900F900FBE0F901F9018959EEF9093A6
:1014D000E800C7CF1092F100D5CF913059F48111B7
:1014E000D3CF4130510581F68091C6018D7F809325
:1014F000C601CACF933049F48111C6CF413051059E
:1015000019F68091C6018260F2CF953041F4809146
:10151000E80080FFFCCF20682093E300B5CF963031
:1015200009F0A9C00B8D1C8D22E01092E9001092E9
:10153000C4011092C301F2122EC01092C201109287
:10154000C1010E9458051F8299E09983FA8291E0B7
:101550009E8390EA98879AEF99872091C3013091F2
:10156000C401275F3F4F3C832B838D831092E9009A
:101570001092C4011092C3011093C2010093C101E3
:1015800049E050E0BE016F5F7F4F80E00E9432056E
:101590000E94580579CF1093C2010093C1010E94A7
:1015A0006F04DC0112960D911C910115110509F4CF
:1015B00051C1D801ED91FC910480F581E02DBE016F
:1015C0006B5E7F4FC8010995009709F03EC1F80195
:1015D00000851185EACFF3E0FF120EC08F898823C2
:1015E00009F440C0823061F440E867E08BEC97E09A
:1015F0000E94C10C811148CF81E28093EB0047CF5C
:10160000813029F440E86BE08FEB97E0F1CF833035
:1016100099F70E946F04DC011296ED90FC908E0108
:101620000F5F1F4F6801E114F10479F0D701ED91CC
:10163000FC910680F781E02DB801C7010995080FDC
:10164000111DF701E084F184EECFD8011C92F60160
:1016500001900020E9F73197BF016C197D0940E046
:10166000C601C6CF69EA77E0FB01449150E080E80B
:101670000E94320509CF973009F4BECF983021F48B
:1016800081E08093F10000CF993009F0FDCE8370A6
:1016900009F0B2CFE4E2F1E081E031E096E321919C
:1016A000222371F08093E9003093EB00DF01119762
:1016B0002C912093EC009093ED008F5F873079F7A9
:1016C0008EE78093EA001092EA008F898093D6011A
:1016D000DBCE8B8D9C8D1092E9001092C40110928C
:1016E000C3019093C2018093C101898D811192C081
:1016F0008E899D89913A49F4813209F07DCF47E086
:1017000050E067E171E080E0B3CF913209F074CF2F
:10171000833269F48F89988DB0E0A0E08093130143
:1017200090931401A0931501B0931601ADCE8032B1
:1017300069F48091E80082FFFCCF67E087E191E0E7
:101740000E9489058BEF8093E8009ECE823209F0DB
:101750009BCE8F8980931E01EEEFFFE785919491D8
:101760008B3F9C4D51F1E0E0F8E0809117019091A2
:101770001801A0911901B0911A01803B9440A10574
:10178000B105F1F480911E0180FD1AC0EE3F8AE0A0
:10179000F80789F587E797E7918380838091600058
:1017A0008093C50188E19BE00FB6F894A8958093DB
:1017B00060000FBE9093600067CEEEEFFAE0D5CFE9
:1017C000808191818737974709F05ECEA8958091F7
:1017D00060008861809360008091C5018093600003
:1017E000EE3F2AE0F20789F08091FE0A9091FF0A0D
:1017F0009183808349CE808191818737980751F208
:101800009093FF0A8093FE0AC5CF1092FF0A1092B0
:10181000FE0A3ACE0E946F04DC0112960D911C91D3
:101820000115110509F4E8CED801ED91FC91019064
:10183000F081E02DBE016B5E7F4FC80109958111DB
:1018400023CEF80100851185EBCF181619060CF48C
:101850001BCED2CEF1E0FF12BECE6DEA77E004CF10
:101860000F920FB68F939F93EF93FF9380919901FF
:101870008D5F8D3708F08D5780939901E7EAF1E08D
:1018800080818E4F808391819F4F918382818F4F82
:10189000828383818F4F8383EAE9F1E080818F5FC8
:1018A000808381818F4F818382818F4F8283838167
:1018B0008F4F83838FB18F6066991C9B88278F36EB
:1018C00081F480919801981B963068F0E0E0F8E090
:1018D00087E78083818388E180936000F0936000D4
:1018E000FFCF90939801FF91EF919F918F910FBE41
:1018F0000F9018951F920F920FB60F9211242F93ED
:101900003F934F935F936F937F938F939F93AF9387
:10191000BF93EF93FF938091940190919501A091D3
:101920009601B09197010097A105B10539F1209179
:101930009301211105C0369A209192012111379A05
:101940000197A109B109B7FD08C080939401909354
:101950009501A0939601B0939701FF91EF91BF91EC
:10196000AF919F918F917F916F915F914F913F9137
:101970002F910F900FBE0F901F9018950E94450851
:10198000ECCFEF92FF920F931F93CF93DF93F82E3C
:10199000192FE62E042F81E0860F880F0E94040580
:1019A00083E00E940405CF2DD12FEC0EFD2EF11CFB
:1019B000CE15DF05B9F007FF13C0FE0184910E9428
:1019C0000405182F80E00E940405812321968111CF
:1019D000EFCFDF91CF911F910F91FF90EF9008957E
:1019E0008881EDCF81E0F5CFE7EDF5E0138212823B
:1019F00088EE93E0A0E0B0E084839583A683B7836C
:101A00008EE291E0918380838FEF9FEF95878487AB
:101A1000E7E3F6E01382128280E491E09183808311
:101A200085E194E0909336068093350680E090E857
:101A3000909334068093330646983E9A47983F9A8F
:101A40000895CDB7DEB72897DEBFCDBF789483E089
:101A500084BD83E085BD81E080936E00E1E8F0E025
:101A600083E08083E0E881E08083E1E983E08083B4
:101A7000E0E981E08083E1EC87E08083E3EC81E0D2
:101A80008083E0EC82E08083E2EC81E08083EAE71F
:101A900087E08083806880831092D6011092C6010F
:101AA0001092C8018091D70081608093D70080EAAE
:101AB0008093D80089B5806189BD89B5826089BD70
:101AC00009B400FEFDCF81E090E00E94C305809143
:101AD000D8008F7C80618093D8008091E000807F67
:101AE0008093E0008091E1008E7E8093E1008DE0A4
:101AF0008093E200559A209A81EC80937C0081EFDC
:101B000085B987EE84B982E38BB982EF8AB9769A78
:101B10006E9880EF81BB10BA80E58CBD81E08DBDF1
:101B200085E00E945C075F9A85E00E945C075C98F4
:101B3000ECE5F6E085918EBD00000DB407FEFDCF0B
:101B4000E936C1F75C9A81E88093640081E0809374
:101B500065000E942E0880E80E9423088823A9F0CF
:101B60005C9885EA8EBD00000DB407FEFDCF5C9A3F
:101B70002E982F982D988091640080628093640045
:101B800081E083BF889513BEFCCF84E00E942308C8
:101B90008823B9F12D9884E80E9423088823A1F0B6
:101BA0002D9A88EC0E945C072F986FEF82E090E0FE
:101BB0000E949A1384EF91E00E94C3052F9A84E853
:101BC0000E9423088111FBCF84E10E94230888230F
:101BD000A1F02D9A88EC0E945C072E9860E082E0CC
:101BE00090E00E949A1384EF91E00E94C3052E9A20
:101BF00084E10E9423088111FBCF88EC0E945C07DE
:101C0000C4CF2D9A82E090E00E949213882309F4B9
:101C10007CC03E9A3F9A81E080939E0181E090E0F3
:101C20000E949213182F147081FF0EC011112E986C
:101C300071EF872E99249A9480E40E9423088823C8
:101C400009F468C02E9A2F9A82E30E945C070E94D2
:101C50005F078111F9CF86E18093000180916400D4
:101C60008E7F8093640080917A00806480937A00F4
:101C700080917A0086FDFCCF009178001091790068
:101C80000E945A06AB01BC01C801B0E0A0E0DC0133
:101C9000992788278C019D01040F151F261F371FC8
:101CA000C901B8012091640021602093640061158E
:101CB00071058105910511F00E9489130E94180495
:101CC0001092C0011092BF011092BE011092BD018E
:101CD00080E190E00E9492138093A30181E190E063
:101CE0000E9492138093A401AA24A394B12C809102
:101CF000A101882309F4B3C01092A10180E090E013
:101D0000892BA9F30E940000EFCF10929E013E980C
:101D10003F9884CF112331F004E08016910411F430
:101D20002E9A2F9881E00E942504282D2770A22E3C
:101D3000A40133E0559547953A95E1F79A01369518
:101D4000322F22273795279529523E4F70E060E0C9
:101D50004E3F8FEF580761F190E080E0DB01A45522
:101D6000BA4F7901E0E8EE0EF11CFD01E80FF91F12
:101D7000E491F0E03F010A2C02C0660C771C0A9443
:101D8000E2F74F3F540739F06901C80ED91EF6013A
:101D9000B488B628B48AAA2039F06701C80ED91EC3
:101DA000F60104890729048B019688359105E9F627
:101DB0004F5F5F4F20583F4F685A7F4F603B710520
:101DC00039F60E942E088FE00E945C07FFEF8F1A01
:101DD0009F0A09E18016910409F02ECF112311F01A
:101DE0002F9A2D9880E991E00E94C3052D9A81E0F9
:101DF00090E00E94921380FF27CF8AE090E00E943B
:101E000092139FEF980F9E3F08F01ECF22E330E021
:101E10003093BE012093BD0128E330E03093C00130
:101E20002093BF010BE010E01A830983682F87E33A
:101E300096E00E94B90789819A810E9492130981D4
:101E40001A810F5F1F4F1A8309830131110571F742
:101E50000E942E0888EE93E00E94C305F5CE2091E3
:101E6000A7018091A201122F181B812F90910001D0
:101E7000191748F48F5F891708F040CF81E083BFBE
:101E8000889513BE3BCF81E08093A1012093A201EE
:101E9000EFE9F1E0808191810196808391830E9436
:101EA00018041092C0011092BF011092BE0110924E
:101EB000BD018091BC018093BB010E945F078093AC
:101EC000BC018091B9019091BA018130910509F46A
:101ED00038C134F4892B09F470C00E942E080ECF4B
:101EE0008230910509F443C30397B9F78FB7F8948B
:101EF000C090A701D090A801E090A901F090AA019C
:101F00008FBF6091B7017091B80125E045E08091E5
:101F10001101909112010E947D076091B5017091AD
:101F2000B60125E045E08091B3019091B4010E9493
:101F30007D076091B1017091B20125E045E080918B
:101F4000AF019091B0010E947D0760910F017091E7
:101F5000100120E041E457E080910D0190910E01C5
:101F60000E9472068091AB019091AC01A091AD01ED
:101F7000B091AE01C816D906EA06FB0620F0B09271
:101F8000BA01A092B9012AE730E03093BE01209354
:101F9000BD011092C0011092BF01BC01CD016C19AE
:101FA0007D098E099F0928EE33E040E050E00E9451
:101FB000EC13C9010E945F0990CF88E491E00E9470
:101FC000520983E591E00E94520983E591E00E9465
:101FD000520985E591E00E9452098091A3019091F8
:101FE000A4010E945F0983E591E00E94520983E504
:101FF00091E00E94520983E591E00E94520982E635
:1020000091E00E94520920E049E656E064E170E068
:1020100084E590E00E9472060091A6010983802F5A
:1020200090E02091A3013091A40128173907ECF426
:102030009093A4018093A30180E190E00E94921309
:10204000081729F0602F80E190E00E94AC131091F6
:10205000A401198381E190E00E949213181729F0DE
:10206000612F81E190E00E94AC138091BB0183FD60
:1020700034CF8091BC0183FF30CF0E943A132BE212
:1020800030E040E050E00E94BA13655F7F4F8F4F11
:102090009F4F7093B8016093B7010E943A1326E6F0
:1020A00030E040E050E00E94BA13655F7F4F8F4FF1
:1020B0009F4F7093B4016093B3010E943A1327E7D6
:1020C00030E040E050E00E94BA137093B00160939A
:1020D000AF010E943A132FE330E040E050E00E944D
:1020E000BA137093B2016093B10185E090E09093D0
:1020F0000E0180930D0186E390E090931001809390
:102100000F011092A6012FB7F8948091A70190912A
:10211000A801A091A901B091AA012FBF8854944FA2
:10212000AF4FBF4F8093AB019093AC01A093AD0133
:10213000B093AE0183E090E09093BA018093B9012F
:10214000CCCE6091A60170E090E080E04AE00E9471
:1021500004092091A50160910F01709110018091F7
:102160000D0190910E01211137C241E457E00E9408
:10217000720680E10E94230800910D0110910E016A
:10218000882399F060910F01709110016F5F7F4F6C
:102190007093100160930F0121E041E457E0C80102
:1021A0000E94720681E08093A50180E80E942308C6
:1021B000882399F060910F017091100161507109AD
:1021C0007093100160930F0121E041E457E0C801D2
:1021D0000E94720681E08093A50180E40E9423089A
:1021E00020910F013091100138872F83882379F0D7
:1021F000C801019690930E0180930D0120E041E407
:1022000057E06F8178850E9472061092A50180E2E6
:102210000E942308882391F080910D0190910E0176
:10222000019790930E0180930D0120E041E457E067
:102230006F8178850E9472061092A50100910B01B2
:1022400010910C011C830B830091090110910A016C
:102250001E830D8320E04BE357E06B817C81C80136
:102260000E947206C090B701D090B8018090110111
:102270009090120125E045E0B601C4010E947D075F
:102280006090B5017090B601E090B301F090B40198
:1022900025E045E0B301C7010E947D072090B10110
:1022A0003090B2014090AF015090B00125E045E080
:1022B000B101C2010E947D0700910D0110910E0134
:1022C0009801275F3F4F3A83298382169306F4F4DF
:1022D00035E0830E911C08151905C4F48F8198858B
:1022E0000996C816D90694F445E0C40ED11C8F8116
:1022F00098858C159D0554F4E2E0F0E0F093BA0166
:10230000E093B90189E297E00E94ED0829813A81C2
:10231000E216F306F4F435E0E30EF11C0E151F058A
:10232000C4F48F81988509966816790694F445E07F
:10233000640E711C8F8198858615970554F4E2E030
:10234000F0E0F093BA01E093B90189E297E00E94CE
:10235000ED0829813A8142165306F4F435E0430E24
:10236000511C04151505C4F48F819885099628160B
:10237000390694F445E0240E311C8F81988582152E
:10238000930554F4E2E0F0E0F093BA01E093B90170
:1023900089E297E00E94ED082D813E8189819A8132
:1023A00028173907ACF5C90104960817190784F5F1
:1023B0008F81988509960B811C810817190744F5B0
:1023C000C80105960F811885081719070CF580912B
:1023D000A6018F5F8093A6010E943A132CE730E09C
:1023E00040E050E00E94BA1370930A016093090123
:1023F0000E943A132BE330E040E050E00E94BA1311
:1024000070930C0160930B018FE197E00E94ED083F
:1024100020910701309108018091110190911201E2
:102420002130310509F068C0019690931201809324
:10243000110180911101909112018B37910509F0E2
:1024400061C02FEF3FEF30930801209307012091E7
:102450000501309106018091B5019091B6012130BE
:10246000310509F057C001969093B6018093B501EC
:102470008091B5019091B6018B33910509F050C060
:102480008FEF9FEF90930601809305012091030148
:10249000309104018091B1019091B2012130310558
:1024A00009F046C001969093B2018093B10120914A
:1024B0000101309102018091AF019091B001213072
:1024C0003105E1F501969093B0018093AF018091C1
:1024D000B1019091B2010097B1F5B0920401A092C0
:1024E00003018091AF019091B0010097A9F5B092DE
:1024F0000201A0920101F1CC2F3F3F4F09F099CF8B
:10250000019793CF892B09F0A2CFB0920801A09236
:1025100007019DCF2F3F3F4F09F0AACF0197A4CFCE
:10252000892B09F0B3CFB0920601A0920501AECF7E
:102530002F3F3F4F09F0BBCF0197B5CF2F3F3F4F04
:1025400031F60197C0CFCA9761F60FEF1FEF1093D6
:10255000040100930301C5CF8637910509F0BDCC76
:102560002FEF3FEF3093020120930101B6CC82E2BE
:1025700090E09093BE018093BD01E4E1F0E0F09320
:10258000C001E093BF018AE691E00E94520985E113
:1025900090E09093BE018093BD0102E210E01093A1
:1025A000C0010093BF0185E791E00E94520960914C
:1025B000A60170E090E080E04AE00E94040980916A
:1025C000BB0183FD8ACC8091BC0183FF86CC109235
:1025D000BA011092B90181CC21E0C7CD8F929F92B0
:1025E000AF92BF92CF92DF92EF92FF92CF93DF93A1
:1025F000EC01688179818A819B8161157105810572
:10260000910521F464E279ED8BE597E02DE133EF5C
:1026100041E050E00E94BA1349015A019B01AC010C
:10262000A7EAB1E40E94D9136B017C01ACEEB4EFD0
:10263000A50194010E94E713C60ED71EE81EF91EDD
:10264000F7FE06C081E0C81AD108E10880E8F80A60
:10265000C882D982EA82FB82C701B6019F77DF91E7
:10266000CF91FF90EF90DF90CF90BF90AF909F9071
:102670008F9008958F929F92AF92BF92CF92DF92E8
:10268000EF92FF9260911F017091200180912101D2
:1026900090912201611571058105910521F464E293
:1026A00079ED8BE597E02DE133EF41E050E00E94BA
:1026B000BA1349015A019B01AC01A7EAB1E40E9497
:1026C000D9136B017C01ACEEB4EFA50194010E941B
:1026D000E713C60ED71EE81EF91EF7FE06C081E0FE
:1026E000C81AD108E10880E8F80AC0921F01D09208
:1026F0002001E0922101F0922201C701B6019F77EB
:10270000FF90EF90DF90CF90BF90AF909F908F9011
:10271000089560931F01709320018093210190938D
:1027200022010895F999FECF92BD81BDF89A9927AB
:1027300080B50895262FF999FECF92BD81BDF89AF4
:10274000019700B4021639F01FBA20BD0FB6F894F5
:10275000FA9AF99A0FBE0895262FF999FECF1FBA5B
:1027600092BD81BD20BD0FB6F894FA9AF99A0FBEBA
:1027700001960895052E97FB1EF400940E94D11334
:1027800057FD07D00E94EC1307FC03D04EF40C94C5
:10279000D11350954095309521953F4F4F4F5F4F46
:1027A000089590958095709561957F4F8F4F9F4FBD
:1027B00008950E940E14A59F900DB49F900DA49FA4
:1027C000800D911D11240895B7FF0C94D9130E9418
:1027D000D913821B930B0895A1E21A2EAA1BBB1BCF
:1027E000FD010DC0AA1FBB1FEE1FFF1FA217B307DD
:1027F000E407F50720F0A21BB30BE40BF50B661FF3
:10280000771F881F991F1A9469F7609570958095B6
:1028100090959B01AC01BD01CF010895A29FB0012D
:10282000B39FC001A39F700D811D1124911DB29F04
:10283000700D811D1124911D0895EE0FFF1F05904D
:0A284000F491E02D0994F894FFCF05
:10284A0010010001000100FFFF3F002000050036D3
:10285A00007B00FFFFFFFF00E10000000000000115
:10286A0000000000C1808100000000000000830415
:10287A00D705A4049904EA04A804C60400000000C9
:10288A00B907960501090009436F696E20527573ED
:10289A006821000A004869676873636F7265203DA2
:1028AA002000412053544152540047616D65204F26
:1028BA007665722100596F75722053636F726520B5
:0428CA003D200000AD
:00000001FF
